S01000006F6E6C696E6531372E7372656327
S11300000C942A000C9447000C9447000C9447006D
S11300100C9447000C9447000C9447000C94470040
S11300200C9447000C9447000C9447000C94470030
S11300300C9447000C9447000C9447000C94470020
S11300400C9483060C9447000C9447000C944700CE
S11300500C94470011241FBECFE5D8E0DEBFCDBF0E
S113006010E0A0E6B0E0E2E6F6E102C005900D92F1
S1130070A23CB107D9F720E0A2ECB0E001C01D9288
S1130080A73CB207E1F70E9496050C942F0B0C9441
S11300900000CF93DF93CDB7DEB76D970FB6F8941A
S11300A0DEBF0FBECDBF8D8F6D8D80E00E94350900
S11300B060E080E10E94490860E089E00E9449080C
S11300C061E08AE00E94490880E090E0A0E8BFE394
S11300D089839A83AB83BC8320E030E04AE755E40C
S11300E069817A818B819C810E94590ADC01CB0150
S11300F08B8B9C8BAD8BBE8B20E030E040E85FE3C4
S11301006B897C898D899E890E94D30988232CF46C
S113011081E090E0988F8F8B3FC020E03FEF4FE766
S113012057E46B897C898D899E890E94540A18162C
S11301304CF520E030E040E251E469817A818B8122
S11301409C810E94590ADC01CB01BC01CD010E94B3
S1130150D809DC01CB01988F8F8B0FC080E991E027
S11301609A8F898F898D9A8D0197F1F79A8F898F4C
S11301708F89988D0197988F8F8B8F89988D892B74
S113018069F714C06B897C898D899E890E94D8097E
S1130190DC01CB01988F8F8B8F89988D9C8F8B8FEF
S11301A08B8D9C8D0197F1F79C8F8B8F60E08AE09B
S11301B00E94490880E090E0A0E8BFE38D839E831D
S11301C0AF83B88720E030E04AE755E46D817E8153
S11301D08F8198850E94590ADC01CB0189879A870F
S11301E0AB87BC8720E030E040E85FE369857A852F
S11301F08B859C850E94D30988232CF481E090E0B0
S11302009E878D873FC020E03FEF4FE757E4698525
S11302107A858B859C850E94540A18164CF520E03B
S113022030E040E251E46D817E818F8198850E94A7
S1130230590ADC01CB01BC01CD010E94D809DC01C3
S1130240CB019E878D870FC080E991E0988B8F87C3
S11302508F8598890197F1F7988B8F878D859E8577
S113026001979E878D878D859E85892B69F714C09C
S113027069857A858B859C850E94D809DC01CB0130
S11302809E878D878D859E859A8B898B89899A898E
S11302900197F1F79A8B898B00006D960FB6F8944D
S11302A0DEBF0FBECDBFDF91CF910895CF93DF9313
S11302B0CDB7DEB76D970FB6F894DEBF0FBECDBFD6
S11302C08D8F6D8D80E00E94350961E080E10E9490
S11302D0490860E089E00E94490861E08AE00E94E0
S11302E0490880E090E0A0E8BFE389839A83AB8368
S11302F0BC8320E030E04AE755E469817A818B8150
S11303009C810E94590ADC01CB018B8B9C8BAD8BA9
S1130310BE8B20E030E040E85FE36B897C898D8907
S11303209E890E94D30988232CF481E090E0988F61
S11303308F8B3FC020E03FEF4FE757E46B897C8908
S11303408D899E890E94540A18164CF520E030E0ED
S113035040E251E469817A818B819C810E94590A2F
S1130360DC01CB01BC01CD010E94D809DC01CB0129
S1130370988F8F8B0FC080E991E09A8F898F898D38
S11303809A8D0197F1F79A8F898F8F89988D0197AC
S1130390988F8F8B8F89988D892B69F714C06B89FF
S11303A07C898D899E890E94D809DC01CB01988FB4
S11303B08F8B8F89988D9C8F8B8F8B8D9C8D0197C4
S11303C0F1F79C8F8B8F60E08AE00E94490880E0FF
S11303D090E0A0E8BFE38D839E83AF83B88720E0DD
S11303E030E04AE755E46D817E818F8198850E94D3
S11303F0590ADC01CB0189879A87AB87BC8720E047
S113040030E040E85FE369857A858B859C850E94AE
S1130410D30988232CF481E090E09E878D873FC028
S113042020E03FEF4FE757E469857A858B859C850B
S11304300E94540A18164CF520E030E040E251E4E2
S11304406D817E818F8198850E94590ADC01CB01E0
S1130450BC01CD010E94D809DC01CB019E878D87A8
S11304600FC080E991E0988B8F878F8598890197D9
S1130470F1F7988B8F878D859E8501979E878D8751
S11304808D859E85892B69F714C069857A858B854E
S11304909C850E94D809DC01CB019E878D878D85C0
S11304A09E859A8B898B89899A890197F1F79A8B12
S11304B0898B00006D960FB6F894DEBF0FBECDBFDA
S11304C0DF91CF910895CF93DF93CDB7DEB76C97CB
S11304D00FB6F894DEBF0FBECDBF80E090E0A8E475
S11304E0B2E489839A83AB83BC8320E030E04AE79B
S11304F055E469817A818B819C810E94590ADC01CF
S1130500CB018B8B9C8BAD8BBE8B20E030E040E825
S11305105FE36B897C898D899E890E94D309882336
S11305202CF481E090E0988F8F8B3FC020E03FEF68
S11305304FE757E46B897C898D899E890E94540A10
S113054018164CF520E030E040E251E469817A81EC
S11305508B819C810E94590ADC01CB01BC01CD0135
S11305600E94D809DC01CB01988F8F8B0FC080E9E2
S113057091E09A8F898F898D9A8D0197F1F79A8FDF
S1130580898F8F89988D0197988F8F8B8F89988DFC
S1130590892B69F714C06B897C898D899E890E9497
S11305A0D809DC01CB01988F8F8B8F89988D9C8F14
S11305B08B8F8B8D9C8D0197F1F79C8F8B8F88E3AC
S11305C00E9449008CE00E94490081E00E94490099
S11305D080E090E0A0E8BFE38D839E83AF83B8877B
S11305E020E030E04AE755E46D817E818F81988573
S11305F00E94590ADC01CB0189879A87AB87BC87A3
S113060020E030E040E85FE369857A858B859C854E
S11306100E94D30988232CF481E090E09E878D8783
S11306203FC020E03FEF4FE757E469857A858B852B
S11306309C850E94540A18164CF520E030E040E2F4
S113064051E46D817E818F8198850E94590ADC0175
S1130650CB01BC01CD010E94D809DC01CB019E87EE
S11306608D870FC080E991E0988B8F878F8598895B
S11306700197F1F7988B8F878D859E8501979E87CB
S11306808D878D859E85892B69F714C069857A8548
S11306908B859C850E94D809DC01CB019E878D87C0
S11306A08D859E859A8B898B89899A890197F1F723
S11306B09A8B898B82E00E94490000006C960FB6E9
S11306C0F894DEBF0FBECDBFDF91CF910895CF93D5
S11306D0DF931F92CDB7DEB7898389810E945601CB
S11306E000000F90DF91CF9108950F931F93CF9344
S11306F0DF93CDB7DEB7A6970FB6F894DEBF0FBE73
S1130700CDBF6BA37CA38DA39EA319821A828BA158
S11307109CA1ADA1BEA1892B8A2B8B2B19F480E35C
S11307200E9467038BA19CA1ADA1BEA1BB230CF0C9
S113073041C08DE20E9467038BA19CA1ADA1BEA123
S1130740B095A095909581959F4FAF4FBF4F8BA3C8
S11307509CA3ADA3BEA32EC08981082F880F110BC3
S11307608BA19CA1ADA1BEA12AE030E040E050E005
S1130770BC01CD010E94100BDC01CB01282FCE015E
S11307800396800F911FFC0120838BA19CA1ADA136
S1130790BEA12AE030E040E050E0BC01CD010E945F
S11307A0100BDA01C9018BA39CA3ADA3BEA389815D
S11307B08F5F89838BA19CA1ADA1BEA1892B8A2BBC
S11307C08B2B51F6898181508A8311C08A81082E2E
S11307D0000C990B9E012D5F3F4F820F931FFC016C
S11307E08081805D0E9467038A8181508A838A8127
S11307F0882364F70000A6960FB6F894DEBF0FBEF8
S1130800CDBFDF91CF911F910F910895CF93DF93C7
S113081000D000D0CDB7DEB79C838B831A821982B7
S11308201A8219820FC089819A812B813C81820F9F
S1130830931FFC0180810E94670389819A8101963C
S11308409A83898389819A812B813C81820F931FAA
S1130850FC018081882339F700000F900F900F90DE
S11308600F90DF91CF910895CF93DF9300D0CDB750
S1130870DEB789836A838981882329F48A81806821
S11308800E94490007C08981813021F48A81806CEB
S11308900E94490000000F900F90DF91CF910895BE
S11308A0CF93DF931F92CDB7DEB7898360E081E0F9
S11308B00E9434048DE690E00E94060461E087E122
S11308C00E94490800000F90DF91CF910895CF93C3
S11308D0DF931F92CDB7DEB7898360E081E00E9489
S11308E034048981882F90E0A0E0B0E0BC01CD0100
S11308F00E94750300000F90DF91CF910895CF936C
S1130900DF93CDB7DEB760E081E00E94340483E773
S113091090E00E9406040000DF91CF910895CF93E8
S1130920DF93CDB7DEB76D970FB6F894DEBF0FBE79
S1130930CDBF9D8F8C8F19821A8280E390E09987B6
S1130940888722E1CE010A96FC01322F11923A9552
S1130950E9F71E821B821C8283E08F8381E08D83F2
S1130960198224C08981882F90E02C8D3D8D820FBF
S1130970931FFC0180818F35A1F08981882F90E03D
S11309802981222F30E04C8D5D8D240F351FF90114
S113099040819E01285F3F4F820F931FFC014083DB
S11309A002C01D820EC089818F5F89838981882F4F
S11309B090E02C8D3D8D820F931FFC018081882354
S11309C089F68981882F90E09E01285F3F4F820F2E
S11309D0931FFC01108289818E83198251C01A826F
S11309E031C08981882F90E0880F991F880F991F43
S11309F0805A9F4FFC01208131818A81882F90E0A9
S1130A00820F931FFC0140818A81882F90E09E0110
S1130A10285F3F4F820F931FFC018081481749F5DF
S1130A208E81282F30E08A81882F90E00196281744
S1130A30390729F481E08B8389818C831BC08A81E7
S1130A408F5F8A838981882F90E0880F991F880F90
S1130A50991F805A9F4FFC01208131818A81882F00
S1130A6090E0820F931FFC018081882309F0B9CFA5
S1130A7001C000008B81813049F089818F5F8983B7
S1130A8099818F81981708F4AACF01C000008E8144
S1130A908F5F89832EC08981882F90E02C8D3D8DB6
S1130AA0820F931FFC018081803300F18981882F9C
S1130AB090E02C8D3D8D820F931FFC0180818A3341
S1130AC0A8F48091C200880F982F990F990F482F8E
S1130AD0490F8981882F90E02C8D3D8D820F931FC3
S1130AE0FC018081840F80538093C20089818F5FD1
S1130AF089838981882F90E02C8D3D8D820F931FEF
S1130B00FC018081882339F68B81813029F48D8121
S1130B10882311F48C8101C087E36D960FB6F89495
S1130B20DEBF0FBECDBFDF91CF910895CF93DF938A
S1130B30CDB7DEB7A5970FB6F894DEBF0FBECDBF15
S1130B400E94CC0680E090E0A8E4B2E48B839C830E
S1130B50AD83BE8320E030E04AE755E46B817C81BD
S1130B608D819E810E94590ADC01CB018F83988775
S1130B70A987BA8720E030E040E85FE36F81788599
S1130B8089859A850E94D30988232CF481E090E01A
S1130B909C878B873FC020E03FEF4FE757E46F818E
S1130BA0788589859A850E94540A18164CF520E0A8
S1130BB030E040E251E46B817C818D819E810E9412
S1130BC0590ADC01CB01BC01CD010E94D809DC012A
S1130BD0CB019C878B870FC080E991E09E878D872E
S1130BE08D859E850197F1F79E878D878B859C85E2
S1130BF001979C878B878B859C85892B69F714C00B
S1130C006F81788589859A850E94D809DC01CB019A
S1130C109C878B878B859C85988B8F878F859889FC
S1130C200197F1F7988B8F8761E080E00E946C094F
S1130C3062E080E10E94870762E089E00E94870702
S1130C4062E08AE00E94870762E08BE10E948707E6
S1130C500E94630219821A821DA260E080E00E9451
S1130C60340482E990E00E9406041092C2001DA29E
S1130C7060E081E00E943404CE0141960E940607A0
S1130C8060E081E00E943404CE0141960E948F040A
S1130C908DA38DA18733E9F060E081E00E943404E4
S1130CA085E990E00E94060460E081E00E9434043B
S1130CB08DA1882F90E0880F991F880F991F8E5956
S1130CC09F4FFC01208131818091C200F901099577
S1130CD004C086EA90E00E9406046AE080E00E9474
S1130CE034048981882F90E0A0E0B0E0BC01CD01FC
S1130CF00E94750389818F5F898389818A3009F015
S1130D00B4CF1982B2CF1F920F9200905F000F925E
S1130D1011242F933F934F935F936F937F938F93FC
S1130D209F93AF93BF93EF93FF93CF93DF93CDB78D
S1130D30DEB782E080936C008091C3009091C40080
S1130D4024E230E0F90120813181FC0131832083E8
S1130D508091C5009091C600FC01099586E290E05F
S1130D6026E230E0F9012081277FFC012083000086
S1130D70DF91CF91FF91EF91BF91AF919F918F91AF
S1130D807F916F915F914F913F912F910F900092BE
S1130D905F000F901F901895CF93DF93CDB7DEB708
S1130DA08BE290E02BE230E0F90120812D7FFC0101
S1130DB020838AE290E02AE230E0F9012081206178
S1130DC0FC0120838AE290E02AE230E0F9012081EC
S1130DD02860FC01208389E290E026E6FC01208360
S1130DE00000DF91CF910895CF93DF93CDB7DEB7A5
S1130DF000008BE290E0FC0180818823D4F78CE230
S1130E0090E0FC018081DF91CF9108950F931F93AF
S1130E10CF93DF9300D01F92CDB7DEB79B838A8335
S1130E2019828981882F90E02A813B818901080FEA
S1130E30191F0E94F406F801808346C08981882323
S1130E40F9F460E070E081E090E00E94340480EB0B
S1130E5090E00E9406048981882F90E0BC0181E023
S1130E6090E00E9434048981882F90E02A813B819C
S1130E70820F931FFC018081882F90E00E946703FA
S1130E8089818F5F89838981882F90E02A813B81C2
S1130E908901080F191F0E94F406F80180838981D3
S1130EA0882F90E0BC0181E090E00E9434048981A5
S1130EB0882F90E02A813B81820F931FFC0180815F
S1130EC0882F90E00E9467038981882F90E02A810F
S1130ED03B81820F931FFC0180818D3009F0AECFDE
S1130EE08981882F90E02A813B81820F931FFC0126
S1130EF010828981833010F081E001C080E00F907E
S1130F000F900F90DF91CF911F910F910895CF9380
S1130F10DF9300D000D000D0CDB7DEB78D836E83D1
S1130F208D81883048F48AE390E09A8389838BE347
S1130F3090E09C838B832CC08D81803160F487E3A7
S1130F4090E09A83898388E390E09C838B838D81EE
S1130F5088508D831DC08D81883160F484E390E0D6
S1130F609A83898385E390E09C838B838D81805170
S1130F708D830EC08D81803258F481E390E09A8392
S1130F80898382E390E09C838B838D8188518D8358
S1130F908E81882F90E08130910589F1823091050E
S1130FA009F458C0892B09F06AC089819A81298182
S1130FB03A81F9012081622F2D81422F50E021E0F6
S1130FC030E002C0220F331F4A95E2F72095262312
S1130FD0FC0120838B819C812B813C81F901208140
S1130FE0622F2D81422F50E021E030E002C0220F19
S1130FF0331F4A95E2F7262BFC01208340C08981E8
S11310009A8129813A81F9012081622F2D81422F11
S113101050E021E030E002C0220F331F4A95E2F78E
S113102020952623FC0120838B819C812B813C818C
S1131030F9012081622F2D81422F50E021E030E020
S113104002C0220F331F4A95E2F720952623FC01A4
S1131050208315C089819A8129813A81F9012081EF
S1131060622F2D81422F50E021E030E002C0220F98
S1131070331F4A95E2F7262BFC0120830000000071
S113108026960FB6F894DEBF0FBECDBFDF91CF9189
S11310900895CF93DF9300D0CDB7DEB789836A83F9
S11310A08A81882F90E0009721F0019709F46EC09F
S11310B0D6C089818830B0F48BE390E02BE330E034
S11310C0F9012081622F2981422F50E021E030E094
S11310D002C0220F331F4A95E2F720952623FC0114
S11310E02083BDC089818031C8F488E390E028E37F
S11310F030E0F9012081622F2981222F30E0A901FB
S11311004850510921E030E002C0220F331F4A95B4
S1131110E2F720952623FC012083A1C08981883130
S1131120C8F485E390E025E330E0F9012081622FE3
S11311302981222F30E0A9014051510921E030E0FA
S113114002C0220F331F4A95E2F720952623FC01A3
S1131150208385C089818032C8F482E390E022E351
S113116030E0F9012081622F2981222F30E0A9018A
S11311704851510921E030E002C0220F331F4A9543
S1131180E2F720952623FC01208369C089818830F9
S1131190A8F48BE390E02BE330E0F9012081622F87
S11311A02981422F50E021E030E002C0220F331F9A
S11311B04A95E2F7262BFC01208351C089818031B6
S11311C0C0F488E390E028E330E0F9012081622F45
S11311D02981222F30E0A9014850510921E030E053
S11311E002C0220F331F4A95E2F7262BFC0120830D
S11311F036C089818831C0F485E390E025E330E08E
S1131200F9012081622F2981222F30E0A901405168
S1131210510921E030E002C0220F331F4A95E2F762
S1131220262BFC0120831BC089818032C0F482E319
S113123090E022E330E0F9012081622F2981222FFE
S113124030E0A9014851510921E030E002C0220FE9
S1131250331F4A95E2F7262BFC012083000000008F
S11312600F900F90DF91CF910895CF93DF9300D02B
S1131270CDB7DEB789836A838981882F90E0813076
S1131280910591F0823091051CF4892B39F01EC030
S11312908230910579F0039799F018C08BE390E0C0
S11312A02A81FC01208312C088E390E02A81FC019A
S11312B020830CC085E390E02A81FC01208306C0D2
S11312C082E390E02A81FC012083000000000F905B
S11312D00F90DF91CF910895CF93DF9300D0CDB7D6
S11312E0DEB789836A838A81882F90E0009771F141
S11312F0019709F052C08981882F90E081309105CF
S113130091F0823091051CF4892B39F046C082306B
S1131310910579F0039799F040C08AE390E02FEFAC
S1131320FC01208312C087E390E02FEFFC012083AF
S11313300CC084E390E02FEFFC01208306C081E31E
S113134090E02FEFFC012083000027C08981882FC3
S113135090E08130910589F0823091051CF4892B4D
S113136039F01AC08230910569F0039781F014C0F6
S11313708AE390E0FC0110820FC087E390E0FC0157
S113138010820AC084E390E0FC01108205C081E36E
S113139090E0FC0110820000000000000F900F900C
S11313A0DF91CF9108950E94070A08F481E008951F
S11313B00E94330A88F09F5798F0B92F9927B751A4
S11313C0B0F0E1F0660F771F881F991F1AF0BA95E5
S11313D0C9F714C0B13091F00E944D0AB1E00895EC
S11313E00C944D0A672F782F8827B85F39F0B93FDE
S11313F0CCF3869577956795B395D9F73EF4909598
S11314008095709561957F4F8F4F9F4F0895990FE9
S11314100008550FAA0BE0E8FEEF16161706E807BA
S1131420F907C0F012161306E407F50798F0621BDB
S1131430730B840B950B39F40A2661F0232B242BB0
S1131440252B21F408950A2609F4A140A6958FEFCF
S1131450811D811D089557FD9058440F551F59F063
S11314605F3F71F04795880F97FB991F61F09F3F8D
S113147079F087950895121613061406551FF2CFB6
S11314804695F1DF08C0161617061806991FF1CF06
S113149086957105610508940895E894BB2766272D
S11314A07727CB0197F908950E94070A08F48FEF74
S11314B008950E946C0A0C94DD0A0E94CF0A38F049
S11314C00E94D60A20F0952311F00C94C60A0C94BD
S11314D0CC0A11240C944E0A0E942B0A70F3959F97
S11314E0C1F3950F50E0551F629FF001729FBB2717
S11314F0F00DB11D639FAA27F00DB11DAA1F649FB3
S11315006627B00DA11D661F829F2227B00DA11D65
S1131510621F739FB00DA11D621F839FA00D611DEB
S1131520221F749F3327A00D611D231F849F600D0C
S1131530211D822F762F6A2F11249F5750409AF035
S1131540F1F088234AF0EE0FFF1FBB1F661F771FC1
S1131550881F91505040A9F79E3F510580F00C948C
S1131560C60A0C944E0A5F3FE4F3983ED4F3869582
S113157077956795B795F795E7959F5FC1F7FE2B2C
S1131580880F911D9695879597F9089597F99F6708
S113159080E870E060E008959FEF80EC08950024F7
S11315A00A941616170618060906089500240A94C4
S11315B012161306140605060895092E0394000C4A
S11315C011F4882352F0BB0F40F4BF2B11F460FFD9
S11315D004C06F5F7F4F8F4F9F4F0895A1E21A2E73
S11315E0AA1BBB1BFD010DC0AA1FBB1FEE1FFF1FC3
S11315F0A217B307E407F50720F0A21BB30BE40B13
S1131600F50B661F771F881F991F1A9469F7609559
S11316107095809590959B01AC01BD01CF01089513
S1131620052E97FB1EF400940E94270B57FD07D04C
S11316300E94EE0A07FC03D04EF40C94270B50953D
S11316404095309521953F4F4F4F5F4F08959095AA
S11316508095709561957F4F8F4F9F4F0895F894B3
S1051660FFCFB6
S11316627E005004840067048B007F04026C65646E
S11316726F6E006C63645F737472206F6B004C65F1
S1131682644F6E006C63646E756D006C6364737496
S113169272005278002020202020202020202020A8
S11316A22020202020006E6F7420666F756E640007
S11316B22020202020202020202020202020202024
S10516C2000022
S9030000FC
